:020000040800F2
:1000000080240020C1010008D92B0008D92900084C
:10001000D52B000857070008D14400080000000055
:10002000000000000000000000000000BB3C0008D1
:100030003309000800000000DB2B0008BD3C00086D
:10004000DB010008DB010008DB010008DB01000820
:10005000DB010008DB010008DB010008DB01000810
:10006000DB010008DB010008DB010008DB01000800
:10007000DB010008DB010008DB010008DB010008F0
:10008000DB010008DB010008DB010008DB010008E0
:10009000DB010008DB010008DB010008DB010008D0
:1000A000DB010008A13D0008DB010008DB010008BE
:1000B000DB010008DB010008DB010008DB010008B0
:1000C000DB010008DB010008DB010008DB010008A0
:1000D000DB010008B5440008DB010008DB01000873
:1000E000DB010008DB010008DB010008DB01000880
:1000F000DB010008DB010008DB010008DB01000870
:10010000DB010008412C0008DB010008DB010008CE
:10011000DB010008DB010008DB010008DB0100084F
:10012000DB010008DB010008DB010008D50700083F
:10013000DB010008DB010008DB010008DB0100082F
:10014000DB010008DB010008DB010008DB0100081F
:10015000DB010008F10700080D080008DB010008BA
:10016000DB010008DB010008DB010008DB010008FF
:10017000DB010008DB010008DB01000800000000D3
:10018000DB010008DB010008DB010008DB010008DF
:10019000DB010008DB010008DB010008DB010008CF
:1001A0000000000000000000DB010008DFF80CD0B8
:1001B00000F050FA00480047E14E0008802400207B
:1001C0000648804706480047FEE7FEE7FEE7FEE7F1
:1001D000FEE7FEE7FEE7FEE7FEE7FEE7853D0008F7
:1001E000AD0100082DE9F05F0546002092469B46D0
:1001F00088460646814640241BE02846414647463D
:10020000224600F05EF853465A46C01A914110D378
:1002100011461846224600F045F82D1A67EB0108F2
:100220004F4622460120002100F03CF817EB000960
:100230004E41201EA4F10104DFDC484631462A4627
:100240004346BDE8F09FD2B201E000F8012B491E01
:10025000FBD270470022F6E710B513460A46044663
:100260001946FFF7F0FF204610BD421C10F8011B95
:100270000029FBD1801A704730B50B46014600209B
:100280002022012409E021FA02F59D4205D303FA58
:1002900002F5491B04FA02F52844151EA2F10102D9
:1002A000F1DC30BD202A04DB203A00FA02F1002004
:1002B00070479140C2F1200320FA03F319439040A4
:1002C0007047202A04DB203A21FA02F0002170470F
:1002D00021FA02F3D040C2F12002914008431946AE
:1002E00070472DE9FE4F804681EA0300C00F0C469F
:1002F000009021F0004123F00045B8EB0200A94135
:1003000005D24046214690461C460B46024623F045
:100310000040104347D0270DC7F30A00C3F30A512A
:100320000290401A019040286BDAC3F3130040F4A6
:10033000801B0098924620B10023D2EB030A63EBA6
:100340000B0B01985946C0F140025046FFF7AAFF37
:1003500006460D4650465946019A00F08DF910EBBD
:1003600008006141002487EA115284EAE7731A43C6
:1003700040D0009A62B3019A012A4FEA075215DC75
:10038000001B61EB02014FF0004202EA0752CDE987
:100390000042001C41F5801132462B4600F08DF9D9
:1003A00003B0BDE8F08F40462146F9E7001B61EB42
:1003B0000201001C41F5801300185B412018A2F5D2
:1003C000001747EB030140EAD570B6196D4111E003
:1003D0006D084FEA360645EAC0754FEA0752001B22
:1003E00061EB0201001C41F5801149084FEA300021
:1003F0000019514132462B4603B0BDE8F04F00F0E2
:100400004DB90098012240000023D0EB020263EBBB
:10041000E073009821464FEAE074B8EB000061EB0E
:100420000401E9E783F000435BE781F0004158E70E
:100430002DE9FE4F81EA030404F0004421F000415D
:1004400000944FF0000B23F0004350EA01045ED00B
:1004500052EA03045BD0C3F30A54C1F30A552C4497
:10046000A4F2F3340194A0FB0254C1F3130141F44C
:100470008011C3F3130343F4801301FB024400FB18
:10048000034E840A970A44EA815447EA8357A4FB3F
:10049000076802958D0A05FB07854FEA932C04FB3C
:1004A0000C542705029D4FEA065847EA1637B5EB6C
:1004B00008056EEB070C870E920E47EA811742EA99
:1004C0008312A7FB0201B6EB0B0164EB00042B0DBA
:1004D00043EA0C335E1844EB1C50DA465146E7FB06
:1004E0000201C5F313044FEA0B3343EA14534FEAF6
:1004F0000432019C43EA0603A4F10C040294009C1C
:10050000CDE900B400F0D9F803B0BDE8F08F0020C9
:100510000146F9E72DE9F04D81EA030404F0004BB0
:1005200021F0004514464FF0000A23F0004150EA44
:10053000050220D054EA01021DD0C5F30A57024635
:10054000C5F31303C1F31300C1F30A5640F4801539
:1005500043F48013A7EB0608101BD64608F2FD38BB
:1005600073EB050002D308F1010801E092185B412A
:10057000B8F1000F03DA00200146BDE8F08D00203D
:100580004FF48011064684460EE0171B73EB0507F7
:1005900005D3121B63EB050306434CEA010C490823
:1005A0004FEA300092185B4150EA0107EDD152EA60
:1005B000030012D082EA040083EA0501084305D053
:1005C000101BAB4106D20122002306E000224FF0AF
:1005D000004302E06FF0010253101AEB06004CEBEF
:1005E000085110EB0A0041EB0B01BDE8F04D00F0A3
:1005F00055B8C1F30A52C1F3130140F2FF3341F47D
:1006000080119A4202DA00200146704740F23343DB
:100610009A42A2F2334202DC5242FFF752BEFFF787
:1006200041BE000030B5041E71F1000404DB4FF040
:100630000044404264EB0101141E73F1000405DB29
:100640001C464FF00043524263EB0403994208BF3B
:10065000904230BD064C074D06E0E06840F00103D3
:1006600094E8070098471034AC42F6D3FFF7A2FD98
:10067000BC4F0008DC4F0008202A06DBCB17203ACD
:1006800041FA02F043EAE07306E041FA02F3D04097
:10069000C2F12002914008431946704710B5141E5C
:1006A00073F1000408DA401C41F1000192185B412B
:1006B0001A4301D120F0010010BD2DE9F04D924602
:1006C0009B4611B1B1FA81F202E0B0FA80F2203219
:1006D0009046FFF7E7FD04460F4640EA0A0041EA6C
:1006E0000B0153465A46084313D0114653EA010002
:1006F00019D0C8F140025046FFF7E3FD05460E460B
:10070000504659464246FFF7CDFD084305D001202B
:1007100004E020463946BDE8F08D0020054346EA56
:10072000E0762C4337430A986305E40AA0EB0800FF
:100730000022FD0A44EA47540A3002D5002001464F
:10074000E9E7010510196941DDE90845001969412A
:10075000BDE8F04DA2E700BFFEE7000070B504461B
:100760000D460A232A462146014802F0C8F870BD0A
:10077000B80300200FB430B5ADF20C4D044600BFF5
:10078000124890F839002028FAD1114800788442A4
:1007900004DA0DF20C4D30BC5DF814FB0DF58460ED
:1007A000019040F2014102A8019BDDF81C2403F0F6
:1007B00091FE0020019002A8FFF757FD85B229465F
:1007C00002A8FFF7CBFF00BFE3E70000B80300205B
:1007D0000000002010B5044800F0C4F80348806809
:1007E000401C0249886010BDB80200205804002057
:1007F00010B5044800F0B6F80348C068401C024930
:10080000C86010BD180300205804002010B504482B
:1008100000F0A8F803480069401C0249086110BDB7
:10082000F8030020580400200146087810381823E7
:10083000B0FBF3F20848805CC865032A05D9086854
:100840006FF30900001D886503E008686FF3090075
:100850008865886D704700009C4F000801460020A5
:100860008A6A8B69CBB932B1012A0DD0022A03D032
:10087000032A10D10EE000BFCB6A03F08073B3F1FE
:10088000807F00D1012007E0CB6AB3F1C07F00D1A7
:10089000012001E000E000BF34E08B69B3F5005FA8
:1008A0001AD132B1012A07D0022A03D0032A11D16A
:1008B0000AE000BF01200EE0CB6A03F08073B3F1C1
:1008C000807F00D1012006E0CB6AB3F1C07F00D168
:1008D000012000E000BF15E032B1012A05D0022A54
:1008E00004D0032A0CD103E000BF00BF012008E0C0
:1008F000CB6A03F08073B3F1807F00D1012000E068
:1009000000BF00BF704730B50468246824F4802419
:1009100005682C60046863608468402C04D1046816
:10092000A2600468E16003E00468A1600468E2601A
:1009300030BD70477047014691F83500022803D05A
:100940008020486501207047052081F8350008683F
:10095000006820F001000A6810600020F3E70146FB
:10096000486D7047F8B50446002000908C48006838
:100970004FF41651B0FBF1F7A56D2E6894F85C109A
:1009800008208840304098B12068006800F00400DA
:1009900070B12068006820F004002168086094F8B5
:1009A0005C1008208840A860606D40F00100606520
:1009B00094F85C1001208840304068B1206840699C
:1009C00000F0800040B194F85C1001208840A860DD
:1009D000606D40F00200606594F85C10042088406F
:1009E000304068B12068006800F0020040B194F81F
:1009F0005C1004208840A860606D40F004006065D1
:100A000094F85C1010208840304078B3206800686B
:100A100000F0080050B394F85C1010208840A860E3
:100A20002068006800F4802080B12068006800F42D
:100A3000002028B9206CC8B12046216C884715E0F9
:100A4000A06C98B12046A16C88470FE02068006830
:100A500000F4807028B92068006820F00800216840
:100A60000860206C10B12046216C884794F85C1017
:100A7000202088403040002865D02068006800F0C1
:100A8000100000285FD094F85C1020208840A860F7
:100A900094F83500052828D12068006820F0160059
:100AA000216808602068406920F080002168486162
:100AB000206C08B9A06C28B12068006820F00800FC
:100AC0002168086094F85C103F208840A86000BF4F
:100AD000002084F8340000BF012084F83500206D28
:100AE00010B12046216D8847F8BD2068006800F4E9
:100AF000802080B12068006800F4002028B9606C74
:100B000010B12046616C88471DE0E06BD8B12046EB
:100B1000E16B884717E02068006800F4807068B9CE
:100B20002068006820F010002168086000BF0020E5
:100B300084F8340000BF012084F83500E06B10B168
:100B40002046E16B8847606D38B3606D00F00100AE
:100B5000F0B1052084F835002068006820F001001D
:100B60002168086000BF0098401C0090B84200D97E
:100B700005E02068006800F001000028F3D100BF04
:100B800000BF002084F8340000BF012084F8350045
:100B9000E06C10B12046E16C884700BFA4E700007C
:100BA000300000202DE9F0410446002500F0ECF96A
:100BB000074614B90120BDE8F081606A00B100BFAA
:100BC00000BF002084F8340000BF022084F8350004
:100BD0002068006820F00100216808600AE000F049
:100BE000D3F9C01B052805D920206065032084F8AF
:100BF0003500E0E72068006800F001000028EED131
:100C00002068056821480540D4E901010843E168EE
:100C100008432169084361690843A1690843E16900
:100C20000843216A08430543606A042803D1D4E9D4
:100C30000B0108430543206805602068456925F0DD
:100C40000705606A0543606A04280DD1A06A054360
:100C5000E06A48B12046FFF701FE28B140206065F8
:100C6000012084F83500A6E7206845612046FFF79B
:100C7000DBFD064694F85C103F208840B060002001
:100C80006065012084F83500002094E73F8010F073
:100C90002DE9F04704460D4616461F464FF0000862
:100CA000D4F8589000BF94F83400012802D10220F3
:100CB000BDE8F087012084F8340000BF94F83500C7
:100CC000012825D1022084F83500002060653B46CC
:100CD000324629462046FFF716FE94F85C103F2066
:100CE0008840C9F808002068006840F016002168B4
:100CF0000860206C28B12068006840F00800216876
:100D000008602068006840F001002168086006E083
:100D100000BF002084F8340000BF4FF002084046B6
:100D2000C6E7000070B5044600F02EF906462546D9
:100D3000681C10B104480078054400BF00F024F995
:100D4000801BA842FAD370BD2C000020F8B50246E3
:100D50000B460025002400200021E6E0012606FACB
:100D600001F51E6806EA0504AC4273D15E68012EE7
:100D700008D05E68022E05D05E68112E02D05E6833
:100D8000122E13D190684F000326BE40B0434F008F
:100D9000DE68BE4030439060506801268E40B0430C
:100DA0001E79C6F300168E4030435060D0684F0065
:100DB0000326BE40B0434F009E68BE403043D06023
:100DC0005E68022E02D05E68122E13D1CF0802F1A7
:100DD000200656F827004E07F70E0F26BE40B043F8
:100DE0004F07FF0E1E69BE403043CF0802F12006B8
:100DF00046F8270010684F000326BE40B0431E7916
:100E000006F003064F00BE40304310605E6806F0F7
:100E10008056B6F1805FA8D100BF00260096454EEF
:100E2000366846F48046434F3E603E46366806F4D8
:100E30008046009600BF00BF3F4E8F0856F827003F
:100E40008E07370F0F26BE40B0433C4EB24202D150
:100E500000262EE068E03A4EB24201D1012628E099
:100E6000384EB24201D1022623E0374EB24201D1C0
:100E700003261EE0354EB24201D1042619E0344E5D
:100E8000B24201D1052614E0324EB24201D106260B
:100E90000FE0314EB24201D107260AE02F4EB24296
:100EA00001D1082605E02E4EB24201D1092600E00C
:100EB0000A268F073F0FBE4030431F4E8F0846F86B
:100EC0002700284E3068A0435E6806F48036B6F5E9
:100ED000803F00D12043234E3060361D3068A04350
:100EE0005E6806F40036B6F5003F00D120431D4E83
:100EF000361D3060361D3068A0435E6806F48016EB
:100F0000B6F5801F00D12043164E08363060361DDE
:100F10003068A0435E6806F40016B6F5001F00D1E5
:100F20002043104E0C363060491C1029FFF416AFD8
:100F3000F8BD00004438024008380140000002407B
:100F40000004024000080240000C02400010024071
:100F50000014024000180240001C02400020024021
:100F600000240240003C014042690A408A4202D10A
:100F70000A04826100E0816170470AB1816101E089
:100F80000B0483617047000001480068704700004F
:100F900024000020034800680349097808440149F7
:100FA00008607047240000202C00002010B50D4878
:100FB000006840F400700B4908600846006840F47F
:100FC000806008600846006840F480700860032074
:100FD00000F0A2F8002000F007F800F02BF8002045
:100FE00010BD0000003C024070B504460E48007879
:100FF0004FF47A71B1FBF0F00C490968B1FBF0F5E0
:10100000284601F0A3F808B1012070BD102C07D2CA
:1010100000222146501E00F041F80548046001E01E
:101020000120F2E70020F0E72C0000203000002033
:101030002800002008B500BF002000900E4800687E
:1010400040F480400C4908600846006800F4804085
:10105000009000BF00BF00BF00200090081F006884
:1010600040F08050091F08600846006800F080507A
:10107000009000BF00BF08BD44380240014608464A
:10108000002809DB00F01F0301229A4043099B005E
:1010900003F1E023C3F8002100BF70472DE9F05FA2
:1010A00080460D461646002703F02AFA07463946C1
:1010B0002A46334601F00700C0F1070ABAF1040FCF
:1010C00002D94FF0040A01E0C0F1070AD14600F14D
:1010D000040ABAF1070F02D24FF0000A01E0A0F1B2
:1010E000030AD4464FF0010A0AFA09FAAAF1010AE2
:1010F0000AEA020A0AFA0CFA4FF0010B0BFA0CFB8F
:10110000ABF1010B0BEA030B4AEA0B042146404604
:1011100003F0FEF9BDE8F09F00BF00F00702064BA8
:1011200019684FF6FF031940044B0B4343EA0221B1
:10113000014B196000BF70470CED00E00000FA059C
:1011400038B5002400BF002000901D48006840F022
:1011500080501B4908600846006800F080500090ED
:1011600000BF00BF012017490864FFF70DFF0446C8
:1011700007E0FFF709FF001BB0F57A7F01D90320D4
:1011800038BD1148406800F48030B0F5803FF0D1A0
:1011900001200C494864FFF7F7FE044607E0FFF71B
:1011A000F3FE001BB0F57A7F01D90320E8E706487B
:1011B000406800F40030B0F5003FF0D10020DFE7D8
:1011C0004038024000000E420070004070B50446F6
:1011D0000D460CB9012070BD5848006800F00F00A2
:1011E000A84209D255490D700846006800F00F006A
:1011F000A84201D00120EEE7207800F0020002288A
:101200001DD1207800F00400042805D14C48006866
:1012100040F4E0504A490860207800F008000828AF
:1012200005D14748006840F460404549086044489B
:10123000006820F0F000A168084341490860207868
:1012400000F00100A8B36068012807D13C480838C5
:101250000068C0F34040B8B90120BCE760680228CC
:1012600002D06068032807D1354808380068C0F309
:10127000406048B90120AEE7314808380068C0F343
:10128000400008B90120A6E72D48006820F00300BF
:10129000616808432A490860FFF776FE064609E0C0
:1012A000FFF772FE801B41F28831884202D9032089
:1012B00091E707E02248006800F00C006168B0EB9D
:1012C000810FEDD11D48006800F00F00A84209D938
:1012D0001A490D700846006800F00F00A84201D0BE
:1012E000012078E7207800F00400042807D1144892
:1012F000006820F4E050E168084311490860207854
:1013000000F00800082808D10D48006820F460406B
:10131000216940EAC1000A49086000F03FF8084925
:101320000968C1F30311074A515CC84006490860C7
:1013300006480068FFF758FE00204CE7003C0240DA
:1013400008380240A44F0008300000202800002088
:1013500001480068704700003000002000B5FFF72A
:10136000F7FF04490968C1F38221034A515CC84070
:1013700000BD000008380240B44F000800B5FFF778
:10138000E7FF04490968C1F34231034A515CC84090
:1013900000BD000008380240B44F00082DE9F047B6
:1013A000002400250026A1462548006800F00C0016
:1013B00020B1042805D008283AD105E0DFF8849050
:1013C00039E0DFF8849036E01D48001F006800F027
:1013D0003F041B48001F006800F4800078B11A48E1
:1013E0001749091F0968C1F38811A0FB0170014664
:1013F000224600233846FEF7F5FE05460EE011486A
:101400000F49091F0968C1F38811A0FB017001464B
:10141000224600233846FEF7E5FE05460848001F31
:101420000068C0F30140401C4600B5FBF6F902E03D
:10143000DFF8109000BF00BF4846BDE8F08700000D
:10144000083802400024F40000127A00F8B504467F
:101450000CB90120F8BD207800F00100002874D0FC
:10146000F948006800F00C0004280DD0F648006828
:1014700000F00C00082813D1F348001F006800F4A6
:101480008000B0F5800F0BD1EF4808380068C0F33A
:101490004040002859D06068002856D10120D9E783
:1014A00000BF6068B0F5803F08D1E74808380068A1
:1014B00040F48030E449083908601EE06068B0F507
:1014C000A02F0DD1E0480838006840F48020DE49A4
:1014D000083908600846006840F4803008600CE075
:1014E000D9480838006820F48030D74908390860A6
:1014F0000846006820F48020086000BF606890B152
:10150000FFF742FD054606E0FFF73EFD401B64285D
:1015100001D903209EE7CC4808380068C0F340405A
:101520000028F1D011E0FFF72FFD054606E0FFF798
:101530002BFD401B642801D903208BE7C2480838E3
:101540000068C0F340400028F1D1207800F002008C
:1015500002285FD1BC48006800F00C0058B1BA48BE
:10156000006800F00C0008281CD1B748001F006874
:1015700000F48000B0B9B44808380068C0F34000F7
:1015800020B1E068012801D0012063E7AE480838A7
:10159000006820F0F800216940EAC100AA49083932
:1015A000086037E0E06800B30120A8490860FFF751
:1015B000EBFC054606E0FFF7E7FC401B022801D9DB
:1015C000032047E7A04808380068C0F3400000281F
:1015D000F1D09D480838006820F0F800216940EA01
:1015E000C10099490839086014E000209749086053
:1015F000FFF7CAFC054606E0FFF7C6FC401B0228C1
:1016000001D9032026E7904808380068C0F340005D
:101610000028F1D1207800F0080008282CD160695A
:10162000A8B101208A490860FFF7AEFC054606E034
:10163000FFF7AAFC401B022801D903200AE78248D1
:101640006C300068C0F340000028F1D014E00020A6
:101650007F490860FFF798FC054606E0FFF794FC19
:10166000401B022801D90320F4E677486C3000685B
:10167000C0F340000028F1D1207800F004000428D5
:1016800070D1002770483830006800F0805090B961
:1016900000BF002000906C483830006840F0805057
:1016A0006949383108600846006800F080500090B1
:1016B00000BF00BF01276748006800F48070B0B920
:1016C0006448006840F4807062490860FFF75CFC81
:1016D000054606E0FFF758FC401B022801D903200D
:1016E000B8E65C48006800F480700028F2D000BFC3
:1016F000A068012808D154486830006840F0010013
:101700005149683108601DE0A06805280DD14E4898
:101710006830006840F004004B49683108600846B2
:10172000006840F0010008600CE04748683000683D
:1017300020F001004449683108600846006820F044
:101740000400086000BFA068A8B1FFF71DFC0546B3
:1017500009E0FFF719FC401B41F28831884202D9A9
:10176000032077E626E0384868300068C0F3400080
:101770000028EED013E0FFF707FC054608E0FFF76E
:1017800003FC401B41F28831884201D9032061E605
:101790002D4868300068C0F340000028EFD1012FC9
:1017A00007D129483830006820F080502649383168
:1017B000086000BFA069002845D02348006800F0F9
:1017C0000C0008285DD0A069022845D100201F49DF
:1017D0000866FFF7D9FB054606E0FFF7D5FB401B7F
:1017E000022801D9032035E6174808380068C0F3FD
:1017F00040600028F1D1D4E907010843616A40EA5A
:1018000081110122A06AC2EB500041EA00412C2064
:10181000005D41EA00600C49091F086001200B4986
:101820000866FFF7B1FB054606E0FFF7ADFB401B7E
:10183000022801D903200DE6034808380068C0F3E8
:1018400040600028F1D03FE00838024000004742E5
:10185000800E47420070004000201C490866FFF7D8
:1018600093FB054606E0FFF78FFB401B022801D9DA
:101870000320EFE516480068C0F340600028F2D16D
:1018800022E0A069012800D1E4E51148001D0668A6
:1018900006F48001E069814214D106F03F01206A1C
:1018A00081420FD147F6C0703040616A884209D149
:1018B00006F44031A06A814204D106F07061E06A0A
:1018C000814201D00120C5E50020C3E50000474268
:1018D000003802407047000070B58AB004460D46DB
:1018E000032084F83400606C032820D0B5F5805FB5
:1018F00004D1A06B40F08050A0631CE0B5F5006FF0
:1019000007D1204602F07BF90646A06B3043A06366
:1019100011E03DB9204602F03EF90646A06B304387
:10192000A06308E0A06B40F00060A06303E0A06B40
:1019300040F08050A063A06B38B1104821688863E4
:10194000012084F834000AB070BD60680490A0687B
:101950000590E0680690079560690890A069099075
:1019600007A807C88DE80700206804A90EC901F080
:1019700075F9012084F834000020E4E7FF054000F9
:101980007047000010B50246506E800F0870506E10
:10199000C0F383604870506EC0F301608870506E71
:1019A000000CC870B2F86400000A087192F8640074
:1019B0004871906E000DC880906EC0F303400872AD
:1019C0006820805AC0F3C03048726820805AC0F343
:1019D000803088726820805AC0F34030C872682016
:1019E000805AC0F30030087300204873506C002800
:1019F00036D16820805A8005030DD06E43EA90707E
:101A00000861D06EC0F3C2600875D06EC0F302608A
:101A10004875D06EC0F342508875D06EC0F38240D6
:101A2000C875D06EC0F3C23008760869401C506596
:101A30000B7E506D03F007039B1C01249C40604308
:101A40005065087A00F00F03012098409065D2E9B4
:101A500015035B0A5843D0654FF40073136621E009
:101A6000506C012813D16820805C8006830AD06EF8
:101A700043EA104008610869401C83025365536DB6
:101A8000D3654FF400739365936D13660AE02E4897
:101A900013689863906B40F080509063012082F847
:101AA000340010BD6C20805AC0F3803001F8190F4B
:101AB0006C20805AC0F3C61048706C20805C00F027
:101AC0007F008870106FC00FC870106FC0F3417036
:101AD0000871106FC0F382604871106FC0F38350BB
:101AE0008871106FC0F34050C87100200872106FE9
:101AF000C0F3004048727020805AC0F3C030887232
:101B00007020805AC0F38030C8727020805AC0F3B1
:101B1000403008737020805AC0F300304873702042
:101B2000805AC0F3812088737020805AC0F301204E
:101B3000C8737020805CC0F34600087401204874AC
:101B400019390020ADE70000FF054000F8B5044654
:101B5000002000906946204602F005F8054615B1C0
:101B6000A06B2843A0630098C0F343263046F8BD1D
:101B700070B50446256B2068406BC0F3C03030B1AF
:101B800005F0080018B1204601F0C8FFF8E0206811
:101B9000406BC0F30020002862D04FF480702168B1
:101BA00088632068C06B4CF23A3188432168C8636F
:101BB0002068C06A20F001002168C86205F00800B2
:101BC00038B305F0020010B905F0200050B12068CC
:101BD00001F05CFB06462EB1A06B3043A0632046AB
:101BE000FFF7CEFE40F23A5021688863012084F866
:101BF00034000020206305F0010010B905F0020058
:101C000018B1204600F0EAF9BAE0204600F0ECF9FD
:101C1000B6E005F080000028B8D005F0200050B1F3
:101C2000206801F033FB06462EB1A06B3043A06361
:101C30002046FFF7A5FE05F001000028A6D105F01B
:101C400002000028A2D12068C06A20F008002168A4
:101C5000C862012084F83400204600F0C5F98FE006
:101C60002068406BC0F3803030B105F0080018B137
:101C7000204601F0F8FF83E02068406B40F23A21F3
:101C8000084008B1012000E00020002878D020683A
:101C9000406BC0F3400018B1A06B40F00200A0639D
:101CA0002068406BC0F3C00018B1A06B40F0080082
:101CB000A0632068406BC0F3401018B1A06B40F0E7
:101CC0002000A0632068406BC0F3001018B1A06B27
:101CD00040F01000A0632068406BC0F3402018B1B2
:101CE000A06B40F00800A06340F23A70216888635E
:101CF0002068C06B40F23A3188432168C86320688D
:101D000001F0C4FAA16B0843A06305F0080040B1DC
:101D1000012084F83400002020632046FFF730FEC5
:101D20002EE005F0800000B305F0100010B905F0BA
:101D3000200050B11348E16B0865E06BFEF7FBFD36
:101D400098B1E06B01F045FD1AE005F0010010B913
:101D500005F0020050B10C48216C0865206CFEF7BC
:101D6000EAFD10B1206C01F007FD09E00020A0633E
:101D7000012084F83400002020632046FFF7AAFDEC
:101D800070BD0000D33700087937000810B504464D
:101D90000CB9012010BD94F8340020B90020207740
:101DA000204600F053F8032084F83400204600F069
:101DB0000BF808B10120EDE70020A06320630120AB
:101DC00084F834000020E5E770B58AB004460020AE
:101DD000049005900690079008907620099007A837
:101DE00007C88DE80700206804A90EC900F036FF77
:101DF000064616B101200AB070BD002012490860E5
:101E0000206800F045FF01200F49A039C1F8A0006B
:101E1000204601F01DFE05463DB1012084F8340046
:101E2000A06B2843A0630120E5E7204601F08FFD69
:101E300005463DB1012084F83400A06B2843A0631F
:101E40000120D8E70020D6E7A080254210B586B053
:101E50000446142101A8FEF7FDF95949206888427B
:101E60007ED100BF002000905648006840F400601A
:101E7000544908600846006800F40060009000BF04
:101E800000BF00BF002000904E481438006840F0AA
:101E900004004C49143908600846006800F004004A
:101EA000009000BF00BF00BF0020009008460068FF
:101EB00040F0080008600846006800F00800009044
:101EC00000BF00BF4FF4F8500190022002900020A4
:101ED0000390032004900C20059001A93A48FEF7D6
:101EE00035FF04200190022002900020039003207F
:101EF00004900C20059001A93448FEF727FF3448D0
:101F0000344908604FF0006048600021314881602A
:101F1000C1604FF480610161890041618900816184
:101F20002021C1614FF4403101620421416203214B
:101F300081624FF40001C16289100163FEF732FE35
:101F400008B1FEF7F7FC00BF22482064846300BF9D
:101F50001F484830204908604FF00060486000E0AA
:101F60002BE040211C4881600021C1604FF480615A
:101F7000016189004161890081612021C1614FF4C3
:101F80004031016204214162032181624FF400016A
:101F9000C16289100163FEF705FE08B1FEF7CAFCB5
:101FA00000BF0D48E063846300BF0022012131209F
:101FB000FFF774F83120FFF761F806B010BD00009C
:101FC000002C01404438024000080240000C02404E
:101FD00058640240B8020020180300200121014A81
:101FE00011707047050000200121014A11707047EF
:101FF000040000202DE9F04387B00446884691464E
:102000001E464F46B8F1000F07D1A06B40F00060AC
:10201000A063012007B0BDE8F08394F834000128E4
:1020200077D10020A063B919E06D814205D9A06B7A
:1020300040F00070A0630120ECE7032084F8340036
:1020400000202168C8622068C06B40F21A21084352
:102050002168C8633948E16BC8633948E16BC864DB
:102060000020E16B0865606C012800D07F024FF40E
:102070000071206800F0FEFF05464DB1314821682F
:102080008863A06B2843A063012084F83400C1E773
:10209000012E07D9A02020633946206801F014F9E9
:1020A000054606E0902020633946206801F028F9B3
:1020B000054665B1234821688863A06B2843A06367
:1020C000012084F83400002020630120A2E70120D1
:1020D0001D49086071028B08216801F180024146A8
:1020E000E06BFEF7D5FDA8B12068C06B40F21A2165
:1020F00088432168C863134821688863A06B40F057
:102100008040A063012084F8340000202063012077
:1021100080E711E04FF0FF300190700202909020B4
:1021200003900020049005900120069001A92068EA
:1021300000F054FD00206DE702206BE7C137000876
:1021400005370008FF0540008C85254270B5044620
:102150002546681EB0F1807F01D301200FE0681E84
:102160004FF0E02148610F214FF0FF3002F0D0F92D
:1021700000204FF0E021886107200861002070BD39
:102180007047704730B502460B4600BF92F83C00DE
:10219000012801D1022030BD012082F83C0000BF9F
:1021A000022082F83D00106844681068816824F0BD
:1021B00070041868044310684460184D1068A84201
:1021C0001BD01068B0F1804F17D0154D1068A84291
:1021D00013D0144D1068A8420FD0134D1068A842B8
:1021E0000BD0124D1068A84207D0114D1068A842BC
:1021F00003D0104D1068A84205D121F08001586825
:10220000014310688160012082F83D0000BF00207A
:1022100082F83C0000BF00BFBDE7000000000140A5
:102220000004004000080040000C00400004014091
:10223000004001400018004010B504460CB90120D0
:1022400010BD94F83D0028B9002084F83C002046D9
:1022500000F00CF8022084F83D00211D206801F0F8
:10226000A7FD012084F83D000020E9E738B50446C9
:102270000E492068884217D100BF002000900C480A
:10228000006840F001000A4908600846006800F054
:102290000100009000BF00BF002211461920FEF788
:1022A000FDFE1920FEF7EAFE38BD000000000140E7
:1022B000443802402DE9F04104460D4600BF94F831
:1022C0003C00012802D10220BDE8F081012084F801
:1022D0003C0000BF022084F83D002068866826F09C
:1022E000770626F47F46206886602868502833D019
:1022F0000CDC202850D004DC00284BD0102851D111
:1023000049E0302849D040284CD139E060282DD010
:10231000702807D0B0F5805F03D0B0F5005F41D1E1
:102320000DE040E0D5E902136A68206801F0ACFDD9
:102330002068866846F077062068866033E0D5E935
:1023400002136A68206801F09FFD2068806840F4ED
:1023500080402168886026E0EA686968206801F0AA
:10236000A7FD5021206801F09AFD1CE0EA68696829
:10237000206801F0B0FD6021206801F090FD12E0BE
:10238000EA686968206801F093FD4021206801F047
:1023900086FD08E000BF00BF00BF2968206801F08B
:1023A0007EFD00E000BF00BF012084F83D0000BFBB
:1023B000002084F83C0000BF00BF85E7704710B5DF
:1023C000044620680069C0F34000D8B12068C068A6
:1023D000C0F34000B0B16FF0020021680861012035
:1023E00020772068806900F0030018B12046FFF7CD
:1023F000E5FF05E0204600F0ADF8204600F0ABF820
:102400000020207720680069C0F38000D8B12068E0
:10241000C068C0F38000B0B16FF0040021680861AB
:10242000022020772068806900F4407018B12046AF
:10243000FFF7C4FF05E0204600F08CF8204600F0CE
:102440008AF80020207720680069C0F3C000D8B166
:102450002068C068C0F3C000B0B16FF00800216808
:102460000861042020772068C06900F0030018B1DB
:102470002046FFF7A3FF05E0204600F06BF820465A
:1024800000F069F80020207720680069C0F3001090
:10249000D8B12068C068C0F30010B0B16FF0100070
:1024A00021680861082020772068C06900F4407026
:1024B00018B12046FFF782FF05E0204600F04AF8F9
:1024C000204600F048F8002020772068006900F0DE
:1024D000010058B12068C06800F0010030B16FF011
:1024E000010021680861204600F036F82068006984
:1024F000C0F3C01058B12068C068C0F3C01030B13C
:102500006FF08000216808612046FFF739FE2068DF
:102510000069C0F3801058B12068C068C0F3801013
:1025200030B16FF0400021680861204600F01EF8CD
:1025300020680069C0F3401058B12068C068C0F33B
:10254000401030B16FF02000216808612046FFF78D
:1025500018FE10BD7047704710B504464FF4004197
:102560000148FEF701FD10BD0000024070477047B2
:102570002DE9F0470446206805682068C668206891
:1025800047694FF00008C14605F00F08B8F1000F89
:102590000AD105F0200038B106F0200020B1204615
:1025A00001F0D7FCBDE8F087B8F1000F72D007F05A
:1025B000010018B906F4907000286BD005F00100F6
:1025C00030B106F4807018B1E06B40F00100E063B8
:1025D00005F0040030B107F0010018B1E06B40F0E5
:1025E0000200E06305F0020030B107F0010018B10D
:1025F000E06B40F00400E06305F0080048B106F02D
:10260000200010B907F0010018B1E06B40F008009D
:10261000E063E06B70B305F0200028B106F0200005
:1026200010B1204601F095FC20684069C0F3801984
:10263000E06B00F0080010B9B9F1000F23D020467C
:1026400001F067FC2068406900F04000402816D186
:102650002068406920F0400021684861606B50B1FB
:102660001748616B0865606BFEF765F910B1606B28
:10267000016D88470CE02046FFF779FF08E020460F
:10268000FFF775FF04E02046FFF771FF0020E063CD
:1026900088E7FFE705F0800030B106F0800018B150
:1026A000204601F09DFE7DE705F0400030B106F0C8
:1026B000400018B1204601F03CFC73E700BF71E711
:1026C000FF3E000810B504460CB9012010BDA069FA
:1026D00000B100E000BF94F8390028B9002084F868
:1026E0003800204600F028F8242084F839002068BB
:1026F000C06820F400502168C860204601F07CFCCE
:102700002068006920F490402168086120684069D1
:1027100020F02A00216848612068C06840F4005019
:102720002168C8600020E063202084F8390084F824
:102730003A000020CAE7000010B586B00446142114
:1027400001A8FDF787FD30492068884259D100BFB4
:10275000002000902D48006840F010002B490860D0
:102760000846006800F01000009000BF00BF00BFE6
:102770000020009025481438006840F001002349EB
:10278000143908600846006800F00100009000BF9E
:1027900000BF4FF4C060019002200290002003901F
:1027A000032004900720059001A91948FEF7CEFAEE
:1027B0001848194908604FF00060486040211648E9
:1027C00081600021C1604FF480610161002141619D
:1027D0008161C1614FF40031016200214162FEF765
:1027E000E1F908B1FEF7A6F800BF0B482063846347
:1027F00000BF002211462520FEF750FC2520FEF7E1
:102800003DFC06B010BD00000010014044380240FD
:1028100000000240B8640240F80300202DE9F843AC
:1028200004460D4616461F464FF0000994F83A003C
:10283000202861D105B116B90120BDE8F88300BF99
:1028400094F83800012801D10220F6E7012084F82D
:10285000380000BF0020E063222084F83A00FEF731
:1028600093FB8146A685E68500BF002084F83800EA
:1028700000BF39E0E08D401EE085A068B0F5805FC4
:102880001BD14B46002220212046009701F0DCFDA1
:1028900008B10320D1E7A846206938B9206840680C
:1028A000C0F30800A8F80000AD1C1DE020684068D7
:1028B000C0B2A8F800006D1C16E04B460022202193
:1028C0002046009701F0C0FD08B10320B5E720695C
:1028D00020B92068406805F8010B05E020684068D1
:1028E00000F07F0005F8010BE08D0028C2D1202008
:1028F00084F83A000020A0E702209EE770472DE907
:10290000F84304460D4616461F464FF0000994F85A
:10291000390020285DD105B116B90120BDE8F88342
:1029200000BF94F83800012801D10220F6E7012009
:1029300084F8380000BF0020E063212084F83900CB
:10294000FEF722FB8146A684E68400BF002084F8BF
:10295000380000BF2BE0E08C401EE084A068B0F59A
:10296000805F16D14B46002280212046009701F05F
:102970006BFD08B10320D1E7A846B8F80000C0F30A
:10298000080021684860206908B9AD1C0FE06D1C83
:102990000DE04B46002280212046009701F054FDB7
:1029A00008B10320BAE715F8010B21684860E08CF4
:1029B0000028D0D14B46002240212046009701F04C
:1029C00043FD08B10320A9E7202084F83900002046
:1029D000A4E70220A2E7704700BFFEE708B500BFEA
:1029E000002000901248006840F480001049086000
:1029F0000846006800F48000009000BF00BF00227D
:102A000002213B20FEF74AFB3B20FEF737FB00226A
:102A100002214520FEF742FB4520FEF72FFB002256
:102A200011464620FEF73AFB4620FEF727FB08BD7D
:102A30003038024000B587B0142102A8FDF70AFC27
:102A400000BF002001902748006840F08000254921
:102A500008600846006800F08000019000BF00BFD9
:102A600000BF002001900846006840F004000860A4
:102A70000846006800F00400019000BF00BF00BFDE
:102A8000002001900846006840F0010008600846F8
:102A9000006800F00100019000BF00BF00BF0020EF
:102AA00001900846006840F0080008600846006889
:102AB00000F00800019000BF00BF00224FF4004169
:102AC0000948FEF75AFA4FF40040029001200390A3
:102AD00000200490059002A90348FEF737F907B0DB
:102AE00000BD0000303802400000024010B50D4823
:102AF0000D4908600020486000210B488160C160DA
:102B0000016141618161FFF741F908B1FDF712FFF1
:102B10004FF400610448FEF7DFFE08B1FDF70AFF3D
:102B200010BD0000002C01403402002000B587B029
:102B300000200390049005900690019002901548A3
:102B40001549086040F20770486000211248816012
:102B500044F61F61C1600021016141618161FFF79D
:102B60006BFB08B1FDF7E6FE4FF48050039003A91C
:102B70000948FFF79FFB08B1FDF7DCFE002001903C
:102B8000029001A90448FFF7FDFA08B1FDF7D2FE53
:102B900007B000BD000001407803002010B50B48CD
:102BA0000B4908604FF4E13048600021084881601B
:102BB000C16001610C21416100218161C161FFF7A8
:102BC00081FD08B1FDF7B6FE10BD00000010014008
:102BD000B803002000BFFEE77047704710B50246FB
:102BE00000230868506248689062D1E902042043DB
:102BF0000C6920434C6920430343D06A20F0F7005E
:102C00001843D062002010BD10B50448FEF79EFFA7
:102C1000042801D1002010BD0220FCE7340200206E
:102C200001460869C0B270470146086800F0030019
:102C30007047024602F114004318186870470000FC
:102C400010B50448FEF794FF03484068401C024951
:102C5000486010BD34020020580400200FB410B5A5
:102C600004460021DDE903021043059A1043069A49
:102C70001043079A1043089A10430143606847F6CF
:102C8000FF62904308436060002010BC5DF814FBB5
:102C900010B50446032020600220FEF743F8002010
:102CA00010BD0146D1F88000704710B502460023E0
:102CB00008689060D1E901042043CC6820430C6986
:102CC00020430343D0686FF30B001843D06000200B
:102CD00010BD000010B52248406C20B1012807D07B
:102CE00003280FD109E01FA10120FDF743FD0AE0F1
:102CF00023A10120FDF73EFD05E02EA10120FDF7F7
:102D000039FD00E000BF00BF1548806C421C2DA1BA
:102D10000120FDF72FFD12482FA1C26C0120FDF705
:102D200029FD0F4830A1026D0120FDF723FD0C485D
:102D300031A1426D0120FDF71DFD094835A1826DCD
:102D40000120FDF717FD064838A1C26D0120FDF7EF
:102D500011FD03483EA1026E0120FDF70BFD10BDE1
:102D6000340200205344205374616E646172642005
:102D70004361706163697479203C32470D0A000039
:102D800053442048696768204361706163697479BE
:102D9000203C3332472C534420457874656E64657B
:102DA00064204361706163697479203C32540D0A78
:102DB00000000000434152445F534543555245448F
:102DC0000D0A0000436172642056657273696F6E6C
:102DD0003A25640D0A0000004361726420436C616F
:102DE00073733A25640D0A004361726420524341B3
:102DF0003A25640D0A0000004361726420426C6F42
:102E0000636B2043617061636974793A2564204D76
:102E1000420D0A004361726420426C6F636B205361
:102E2000697A653A25640D0A0D0A000043617264EF
:102E3000204C6F676963616C20426C6F636B204349
:102E4000617061636974793A2564204D420D0A000E
:102E500043617264204C6F676963616C20426C6FE0
:102E6000636B2053697A653A25640D0A0D0A0000E8
:102E700002460868C2F8800000207047F8B5054691
:102E80000E46174600205249087002F019F85149C1
:102E9000086033462A4639464F48FFF7ABF84F499A
:102EA00008700846007800283CD1FEF76DF804460B
:102EB00000BF4748007820B9FEF766F8001B642879
:102EC000F7D34348007838B901204449087001F02D
:102ED000F7FF434908601EE001F0F2FF4049086037
:102EE00000203B490870FEF74FF8044601203B499B
:102EF00008700AE0FFF788FE38B9002037490870EB
:102F000001F0DEFF3749086004E0FEF73DF8001BE2
:102F10006428EFD300BF3148007818B101F0D0FF2A
:102F2000304908602F4800682A49096888420AD257
:102F300001F0B8FF2B490968084426490968401A7E
:102F40002949086006E02748006822490968401AB4
:102F500025490860224800681E49096888420AD24B
:102F600001F0A0FF1E49096808441A490968401A7F
:102F70001E49086006E01A48006816490968401AA8
:102F80001A490860174800681549096888420AD23A
:102F900001F088FF13490968084411490968401A7B
:102FA0001349086006E00F4800680D490968401A97
:102FB0000F4908600E48006800900C4803680A48F2
:102FC0000CA102680120FDF7D5FB04480078F8BD8C
:102FD000040000200800002034020020200000200F
:102FE0000C00002010000020140000201800002019
:102FF0001C00002025750925750925750D0A00009E
:1030000070B586B005460C460194372002904020EA
:103010000390002004904FF48060059001A9284699
:10302000FFF743FE41F288323721284600F0A4F929
:103030000646304606B070BD70B586B005460C46F3
:103040000B4820430190292002904020039000204B
:1030500004904FF48060059001A92846FFF725FEF3
:10306000284600F091FA0646304606B070BD0000D2
:103070000000108070B586B005460C460194102003
:10308000029040200390002004904FF4806005904F
:1030900001A92846FFF709FE41F28832102128468F
:1030A00000F06AF90646304606B070BD70B586B0CD
:1030B00005460C4601940620029040200390002013
:1030C00004904FF48060059001A92846FFF7EDFDBC
:1030D00041F288320621284600F04EF90646304675
:1030E00006B070BD30B585B0044600200090019058
:1030F000029003904FF48060049069462046FFF7E9
:10310000D4FD204600F018F90546284605B030BD2C
:1031100030B585B004464FF4D5700090082001907A
:1031200040200290002003904FF480600490694694
:103130002046FFF7BAFD204600F0AEFA05462846C5
:1031400005B030BDF0B585B0064614461D46009466
:103150000720019040200290002003904FF48060EF
:10316000049069463046FFF7A0FD41F288320721FE
:10317000304600F001F90746384605B0F0BD30B5DD
:1031800085B004460020009002200190C0200290EB
:10319000002003904FF48060049069462046FFF7BA
:1031A00084FD204600F0BEF90546284605B030BD36
:1031B00070B586B005460C46019409200290C020E7
:1031C0000390002004904FF48060059001A92846E8
:1031D000FFF76BFD284600F0A5F90646304606B01D
:1031E00070BD30B585B004460020009033200190BA
:1031F00040200290002003904FF4806004906946C4
:103200002046FFF752FD41F288323321204600F07C
:10321000B3F80546284605B030BD70B586B0054602
:103220000C4601940D200290402003900020049051
:103230004FF48060059001A92846FFF736FD41F262
:1032400088320D21284600F097F80646304606B031
:1032500070BD70B586B005460C4600200190032075
:10326000029040200390002004904FF4806005906D
:1032700001A92846FFF719FD22460321284600F040
:10328000AFF90646304606B070BD000030B585B0D7
:103290000446002000900C20019040200290002065
:1032A00003904FF48060049069462046FFF7FDFCD0
:1032B000044A0C21204600F05FF80546284605B078
:1032C00030BD000000E1F50570B586B005460C463E
:1032D00001941920029040200390002004904FF4A4
:1032E0008060059001A92846FFF7DFFC41F2883293
:1032F0001921284600F040F80646304606B070BD59
:1033000070B586B005460C46019418200290402006
:103310000390002004904FF48060059001A9284696
:10332000FFF7C3FC41F288321821284600F024F848
:103330000646304606B070BD01460E480068C0081B
:103340004FF47A73B0FBF3F041F2883300FB03F2E1
:1033500000BF101EA2F1010202D14FF000407047E1
:10336000486B00F080000028F3D0C520886300205F
:10337000F5E70000300000202DE9F04305460F4638
:10338000904666480068C0084FF47A71B0FBF1F0CF
:1033900000FB08F900BFB9F10000A9F1010903D150
:1033A0004FF00040BDE8F0836E6B06F0450000284A
:1033B000F1D006F400600028EDD1686B00F0040045
:1033C00010B10420A863EDE7686B00F0010010B1B4
:1033D0000120A863E6E7C520A8632846FFF720FC84
:1033E000B84201D00120DDE700212846FFF721FC8B
:1033F00004464B48204008B90020D3E704F00040C1
:10340000B0F1004F02D14FF00070CBE704F08040E4
:10341000B0F1804F01D14020C4E704F00050B0F17A
:10342000005F01D18020BDE704F08050B0F1805FE3
:1034300002D14FF48070B5E704F00060B0F1006F86
:1034400002D14FF40070ADE704F08060B0F1806FFE
:1034500002D14FF48060A5E704F08070B0F1807F66
:1034600002D14FF400609DE704F40000B0F5000FB6
:1034700002D14FF4805095E704F48000B0F5800F3E
:1034800002D14FF400508DE704F40010B0F5001F96
:1034900002D14FF4804085E704F48010B0F5801F1E
:1034A00002D14FF400407DE704F48020B0F5802F76
:1034B00002D14FF4003075E704F40030B0F5003F5E
:1034C00002D14FF480206DE704F48030B0F5803FE6
:1034D00002D14FF4002065E704F40040B0F5004F3E
:1034E00002D14FF480105DE704F48040B0F5804FC6
:1034F00002D14FF4001055E704F40050B0F5005F1E
:1035000002D14FF480004DE704F00800082801D1F3
:10351000000547E74FF4803044E70000300000200A
:1035200008E0FFFD10B5014616480068C0084FF4DA
:103530007A74B0FBF4F041F2883400FB04F300BF6E
:10354000181EA3F1010302D14FF0004010BD4A6BD9
:1035500002F045000028F3D002F400600028EFD10B
:10356000486B00F0040010B104208863EEE7486B5C
:1035700000F0010010B101208863E7E7C5208863EF
:103580000020E3E73000002010B501461348006832
:10359000C0084FF47A74B0FBF4F041F2883400FBB9
:1035A00004F300BF181EA3F1010302D14FF0004045
:1035B00010BD4A6B02F045000028F3D002F4006011
:1035C0000028EFD1486B00F0040010B1042088639C
:1035D000EEE7C52088630020EAE700003000002005
:1035E0002DE9F04304460F4690462A480068C0087B
:1035F0004FF47A71B0FBF1F041F2883100FB01F930
:1036000000BFB9F10000A9F1010903D14FF000405A
:10361000BDE8F083666B06F045000028F1D006F4A3
:1036200000600028EDD1606B00F0040010B10420B0
:10363000A063EDE7606B00F0010010B10120A06312
:10364000E6E72046FFF7ECFAB84201D00120DFE7B9
:10365000C520A06300212046FFF7EBFA054605F4DC
:10366000604020B9280CA8F800000020D0E705F43D
:103670008040B0F5804F02D14FF40050C8E705F408
:103680000040B0F5004F02D14FF48050C0E74FF436
:103690008030BDE73000002010B5014618480068B2
:1036A000C0084FF47A74B0FBF4F041F2883400FBA8
:1036B00004F300BF181EA3F1010302D14FF0004034
:1036C00010BD4A6B02F045000028F3D002F4006000
:1036D0000028EFD1486B00F0040010B1042088638B
:1036E000EEE7486B00F0010010B101208863E7E7C6
:1036F000486B00F0400008B1402088630020DFE7FD
:10370000300000202DE9F0410646B46B3046FDF74D
:1037100026F902282CD0206C476DE06BD0F854803D
:10372000012F02D0B8F1010F1FD112482168886320
:103730002068C06B20F49D702168C863A06B40F0C6
:103740008040A0632046FEF701FA0546062D01D011
:10375000052D05D12068FFF799FDA16B0843A063F3
:10376000012084F83400002020632046FEF708F989
:10377000BDE8F081FF05400070B50546AC6B40F236
:103780003A50216888632046FEF7E0F9064601209A
:1037900084F8340000202063062E01D0052E05D1C8
:1037A0002068FFF773FDA16B0843A063A06B18B9F5
:1037B0002046FEF78FF802E02046FEF7E1F870BDE4
:1037C0000146886B0268D26B42F480720368DA6348
:1037D000704770B50546AC6B40F23A50216888637B
:1037E0002046FEF7B3F90646012084F83400002095
:1037F0002063062E01D0052E05D12068FFF746FD77
:10380000A16B0843A063A06B18B92046FEF762F8CD
:1038100002E02046FEF7B4F870BD2DE9F04389B010
:1038200004460F46FDF7B0FB81464FF0000800202C
:10383000019002903E4608212068FFF71BFC0546D8
:103840001DB1284609B0BDE8F0835022125B110477
:103850002068FFF7D5FB05460DB12846F2E74FF08B
:10386000FF3003900820049030200590022006903D
:10387000002007900120089003A92068FFF7AEF907
:103880002068FFF7AEFC05460DB12846DAE715E0E3
:103890002068406B00F4001038B12068FFF701FA8F
:1038A00001A941F8280008F10108FDF76DFBA0EB24
:1038B0000900401C10B94FF00040C3E72068406B7E
:1038C00040F22A4108400028E2D02068406B00F016
:1038D000080018B1082021688863B3E72068406BAE
:1038E00000F0020018B1022021688863AAE720686E
:1038F000406B00F0200018B1202021688863A1E708
:1039000040F23A502168886302980006029901F457
:103910007F4140EA0120029901F47F0140EA112031
:10392000029940EA11603060361D01980006019945
:1039300001F47F4140EA0120019901F47F0140EA4E
:103940001120019940EA1160306000207AE730B51B
:103950008FB00446012003902068FFF765F918B97D
:103960004FF080600FB030BD606C03281BD0206822
:10397000FFF705FC05460DB12846F3E70021206856
:10398000FFF757F9606704212068FFF752F9A06735
:1039900008212068FFF74DF9E0670C212068FFF748
:1039A00048F980210851606C032807D003A92068DA
:1039B000FFF74FFC05460DB12846D3E7606C03289E
:1039C00020D0BDF80C1021655022125B1104206834
:1039D000FFF7EEFB05460DB12846C3E7002120683E
:1039E000FFF727F9606604212068FFF722F9A06637
:1039F00008212068FFF71DF9E0660C212068FFF719
:103A000018F9206704212068FFF713F9010DE1641C
:103A100004A92046FDF7B6FF10B14FF08050A1E792
:103A20005020005B01040A4600232068FFF78AFB50
:103A300005460DB1284695E7D4E90412A069CDE901
:103A40000012029094E80F00FFF708F9002089E7C0
:103A5000F8B5044600200090002600272068FFF7F4
:103A600041FB05460DB12846F8BD2068FFF750FB25
:103A7000054645B10021A1642068FFF733FB0546E8
:103A80001DB12846F0E70121A164A06C012808D1EE
:103A900000212068FFF7B4FA054615B14FF08050B9
:103AA000E2E71DE000212068FFF7AAFA05460DB104
:103AB0002846D9E718492068FFF7BEFA054615B130
:103AC0004FF08050D0E700212068FFF7B2F806469B
:103AD000012080EAD67080F001070098401C009019
:103AE0004FF6FF710098884201D2002FDAD04FF6CE
:103AF000FF710098884202D34FF08070B4E706F05F
:103B00008040B0F1804F02D10120606401E00020CC
:103B100060640020A8E70000000010C12DE9F0411A
:103B20000546AC6AEF6AE7B14FF0000814E0286878
:103B3000FFF7B7F806462670641C7F1E300A207017
:103B4000641C7F1E300C2070641C7F1E300E2070A1
:103B5000641C7F1E08F10108B8F1080FE7D3AC62BE
:103B6000EF62BDE8F08170B504460D4615B94FF01F
:103B7000006070BD5022125B11042068FFF74DFBFE
:103B800006460EB13046F4E700212068FFF751F8F1
:103B900028600020EDE77CB50446002000900190ED
:103BA00000212068FFF745F800F00070B0F1007FB9
:103BB00002D14FF400607CBD69462046FFF72DFE20
:103BC00005460DB12846F6E7019800F4803098B11B
:103BD0005022125B11042068FFF712FA05460DB15E
:103BE0002846E8E700212068FFF760FA05460DB196
:103BF0002846E0E70020DEE74FF08060DBE77CB599
:103C0000044600200090019000212068FFF711F881
:103C100000F00070B0F1007F02D14FF400607CBD75
:103C200069462046FFF7F9FD05460DB12846F6E73F
:103C3000019800F4802098B15022125B1104206892
:103C4000FFF7DEF905460DB12846E8E702212068B6
:103C5000FFF72CFA05460DB12846E0E70020DEE725
:103C60004FF08060DBE7F8B505462C6A6E6A1EB33C
:103C700000271DE020780090641C761E20780099B3
:103C800041EA00200090641C761E2078009941EAE9
:103C900000400090641C761E2078009941EA006084
:103CA0000090641C761E69462868FFF7E1F87F1CC7
:103CB000082FDFD32C626E62F8BD704710B5FDF798
:103CC00069F910BD00B593B0302107A8FCF7C2FA1E
:103CD000142102A8FCF7BEFA00BF0020019027487B
:103CE000006840F08050254908600846006800F0F0
:103CF0008050019000BF00BF00BF0020019020480D
:103D0000006840F440401E4908600846006800F41E
:103D10004040019000BF00BF012007904FF4A02059
:103D2000089002200D9041050E9104210F91B421BD
:103D30001091022111910821129107A8FDF786FB2D
:103D400008B1FCF7F7FDFDF7FBF908B1FCF7F2FD50
:103D50000F20029002200390002004904FF4A05006
:103D600005904FF480500690052102A8FDF72EFA29
:103D700008B1FCF7DFFD13B000BD00004038024081
:103D8000007000400548006840F470000349086076
:103D90004FF00060014980390860704788ED00E00D
:103DA00010B50248FEF70BFB10BD000078030020A1
:103DB00010B50268294B98420ED0B0F1804F0BD05D
:103DC000274B984208D0274B984205D0264B984263
:103DD00002D0264B984203D122F070024B681A435E
:103DE0001E4B984220D0B0F1804F1DD01C4B984202
:103DF0001AD01C4B984217D01B4B984214D01B4B27
:103E0000984211D01A4B98420ED01A4B98420BD0C0
:103E1000194B984208D0194B984205D0184B98423C
:103E200002D0184B984203D122F44072CB681A4357
:103E300022F080034C6943EA040202608B68C3628B
:103E40000B688362054B984202D0084B984201D11F
:103E50000B6903630123436110BD000000000140B2
:103E60000004004000080040000C00400004014035
:103E7000004001400044014000480140001800405B
:103E8000001C00400020004030B50C46816821F441
:103E90007F4142EA032525432943816030BD0A461C
:103EA000816821F0700142F0070319438160704777
:103EB00030B50B461446026A056A25F00105056215
:103EC000816921F0F00141EA041122F00A021A434B
:103ED0008161026230BD30B50B461446056A25F09B
:103EE000100505628169026A21F4704141EA0431DA
:103EF00022F0A00242EA03128161026230BD70B575
:103F00000546AC6B0020E085E0842046FEF72FFBE1
:103F100070BD0168C96821F490710268D1600168C0
:103F2000496921F0010102685161202180F83A10AD
:103F3000704710B504462068C06820F04000216832
:103F4000C860202084F839002046FEF744FD002098
:103F500010BD70B5044694F83A0022284AD1A068F2
:103F6000B0F5805F13D1A56A206940B92068406828
:103F7000C0F308002880A06A801CA06219E02068B5
:103F80004068C0B22880A06A401CA06211E020698D
:103F900038B920684068C1B2A26A501CA062117092
:103FA00007E02068406800F07F01A26A501CA06210
:103FB0001170E08D401E80B2E085C8B92068C068ED
:103FC00020F020002168C8602068C06820F480705C
:103FD0002168C8602068406920F0010021684861BC
:103FE000202084F83A002046FEF788FC002070BDAF
:103FF0000020FCE70220FAE72DE9F84F044620688C
:10400000006920F44050E168084321680861216993
:10401000A068084361690843E1690843009020688B
:10402000C06849F20C618843009908432168C86060
:104030002068406920F44070A16908432168486104
:10404000E069B0F5004F75D1E3492068884203D09C
:10405000E249206888426FD1FDF790F9814602203D
:104060006168A0FB01510B461920A9FB00712A468B
:104070003846FCF7B7F86421B0FBF1F04FEA001ABC
:1040800002206168A0FB01510B461920A9FB0071B9
:104090002A463846FCF7A6F8074602206168A0FBCE
:1040A00001510B461920A9FB00B12A465846FCF7DE
:1040B00099F86421B0FBF1F000EBC00101EB0010B6
:1040C000A7EB8000322101EBC0006421B0FBF1F0CE
:1040D00000F0F8000AEB400A02206168A0FB0151E1
:1040E0000B461920A9FB00712A463846FCF77AF8DE
:1040F000074602206168A0FB01510B461920A9FB6D
:1041000000B12A465846FCF76DF86421B0FBF1F087
:1041100000EBC00101EB0010A7EB8000322101EBA6
:10412000C0006421B0FBF1F000F0070050442168AA
:1041300088604FE16EE0FFE7FDF710F9814602204D
:104140006168A0FB01510B461920A9FB00712A46AA
:104150003846FCF747F86421B0FBF1F04FEA001A4B
:1041600002206168A0FB01510B461920A9FB0071D8
:104170002A463846FCF736F8074602206168A0FB5D
:1041800001510B461920A9FB00B12A465846FCF7FD
:1041900029F86421B0FBF1F000EBC00101EB001045
:1041A000A7EB8000322101EBC0006421B0FBF1F0ED
:1041B00000F0F8000AEB400A02206168A0FB015100
:1041C0000B461920A9FB00712A463846FCF70AF86D
:1041D000074602206168A0FB015003461920A9FB95
:1041E00000B12A465846FBF7FDFF6421B0FBF1F011
:1041F00000EBC00101EB0010A7EB8000322101EBC6
:10420000C0006421B0FBF1F000F0070050442168C9
:104210008860DFE070492068884203D06F492068D9
:1042200088426BD1FDF7AAF8814604206168A0FBA3
:1042300001510B461920A9FB00712A463846FBF7AD
:10424000D1FF824604206168A0FB01510B46192072
:10425000A9FB00712A463846FBF7C4FF6421B0FB76
:10426000F1F000EBC00101EB0010AAEB800032215D
:1042700001EB00106421B0FBF1F000F0F00A042023
:104280006168A0FB015003461920A9FB00712A4672
:104290003846FBF7A7FF6421B0FBF1F00AEB001AE8
:1042A00004206168A0FB01510B461920A9FB007195
:1042B0002A463846FBF796FF074604206168A0FBB4
:1042C000015003461920A9FB00B12A465846FBF7C6
:1042D00089FF6421B0FBF1F000EBC00101EB00109D
:1042E000A7EB8000322101EB00106421B0FBF1F05C
:1042F00000F00F005044216888606BE0FDF72EF855
:10430000814604206168A0FB015003461920A9FBE7
:1043100000712A463846FBF765FF82460420616833
:10432000A0FB015003461920A9FB00712A4638461C
:10433000FBF758FF6421B0FBF1F000EBC00101EB8B
:104340000010AAEB8000322101EB00106421B0FBC9
:10435000F1F000F0F00A04206168A0FB0150034670
:104360001920A9FB00712A463846FBF73BFF642160
:10437000B0FBF1F00AEB001A04206168A0FB0170A9
:1043800003461920A9FB005001463A462846FBF790
:1043900029FF074604206168A0FB0150034619204D
:1043A000A9FB00B12A465846FBF71CFF6421B0FB6D
:1043B000F1F000EBC00101EB0010A7EB800032210F
:1043C00001EB00106421B0FBF1F000F00F0050444D
:1043D00021688860BDE8F88F00100140001401409A
:1043E000014691F8390021282CD18868B0F5805F0A
:1043F0000FD10A6A1088C0F308000B68586008697A
:1044000018B9086A801C086209E0086A401C086242
:1044100005E00B6A581C086218780B685860C88C55
:10442000401E80B2C88458B90868C06820F0800077
:104430000B68D8600868C06840F040000B68D8601E
:10444000002070470220FCE72DE9F04104460D46AC
:1044500017469846069E21E0701CF8B12EB1FCF775
:1044600093FDA0EB0800B04218D92068C06820F482
:10447000D0702168C8602068406920F00100216880
:104480004861202084F8390084F83A0000BF0020F9
:1044900084F8380000BF0320BDE8F0812068006880
:1044A0002840A84201D1012000E00020B842D3D02A
:1044B0000020F1E710B50448FEF75AF803480068F9
:1044C000401C0249086010BDB803002058040020B9
:1044D00000BFFEE77CB5044600201D4616460029B5
:1044E0000BD0491ECDE90041044B6A4629463046AF
:1044F00000F0F4F8009A002111707CBD0B4E00080A
:1045000002480068C0F30220704700000CED00E094
:1045100010B5002804DB0A07130E054A135406E001
:104520000A07140E034A00F00F031B1FD45410BDDA
:1045300000E400E018ED00E002E008C8121F08C126
:10454000002AFAD170477047002001E001C1121F14
:10455000002AFBD1704700002DE9FF5F82B00021E7
:10456000DDE90430020DDDF840B0034318D044F615
:104570001050A2F2FF3242431514119801281FD0A7
:10458000A5EB0B00401C5FEA000A4FF000064E4FFF
:10459000DFF83891B046504615D5CAF1000413E053
:1045A000119801244AA3012801D16FEA0B01029856
:1045B000119AC0E90031C0E9024206B0BDE8F09F9F
:1045C000CBF10000DFE704460021404A491842EBE6
:1045D0000450CDE9001012E0E00707D032463B4618
:1045E00040464946FBF724FF8046894632463B4613
:1045F00010461946FBF71CFF06460F466410002CB8
:10460000EAD1DDE90401DDE90023BAF1000F06DAA1
:10461000FBF70EFF42464B46FBF70AFF05E0FBF7B0
:1046200079FF42464B46FBF775FF04460E460022D3
:10463000284BFBF7F7FF03D84FF0FF30014607E0A8
:104640000022254B20463146FBF74BFEFBF7D1FFFE
:10465000102409E0002C0ADB0A220023FBF7C2FD2C
:10466000039B30321A55641E50EA0102F2D1641CD9
:10467000039AC4F111031444119A012A03D00122B0
:1046800008430DD10AE0084304D000204FF0110B7D
:10469000119072E7A3EB0B056D1E0DE05B4504DD89
:1046A0004FF0000205F1010504E003DA4FF00002CB
:1046B000A5F10105002AECD002981199C0E9023158
:1046C000C0E9004579E70000000014400000F03F19
:1046D000300000000000F0430000E03F2DE9FF4FF4
:1046E00095B09B468946064600250FE2252877D1DE
:1046F00000242746F84A0121059400E0044316F8F7
:10470000013F203B01FA03F01042F7D130782A280C
:1047100011D06FF02F033078A0F13002092A16D89B
:10472000059A44F0020402EB820203EB42021044B9
:10473000761C0590EFE759F8042B0592002A03DA5E
:10474000504244F40054059044F00204761C307842
:104750002E2816D116F8010F44F004042A280DD093
:104760006FF02F023078A0F13003092B09D807EB46
:10477000870302EB4303C718761CF3E759F8047B61
:10478000761C30786C280FD006DC4C2817D06828AF
:104790000DD06A2814D104E0742810D07A280FD1E3
:1047A0000DE044F400140AE044F4801401E044F401
:1047B00040147278824202D104F58014761C761C73
:1047C000307866280BD013DC582877D009DC002815
:1047D00075D04528F6D04628F4D047281AD19DE157
:1047E00018E0632835D0642879D0652812D195E186
:1047F000702873D008DC6728F1D069286FD06E2844
:104800000DD06F2806D1B5E073282CD0752875D04F
:10481000782874D05A46179990476D1C75E1C4F3F7
:104820000250022809D003280DD0D9F8001004281E
:104830000DD00D6009F1040967E1D9F80010EA17FD
:10484000C1E90052F6E7D9F800100D80F2E70D70CB
:10485000F0E719F8041B8DF8001000208DF8010016
:10486000EA46012003E059F804AB4FF0FF3061073E
:104870004FF0000102D40DE008F101018846B94271
:104880000FDA8045F8DB1AF808100029F4D108E0A7
:1048900008F1010188468142FADB1AF80810002964
:1048A000F6D105985B46A0EB080721463846179AD3
:1048B00000F094FA284400EB080507E04DE029E1F8
:1048C0000DE01AF8010B5A4617999047B8F1010804
:1048D000F7D25B4621463846179A13E142E00A2296
:1048E0000092C4F302524FF0000A022A08D059F88D
:1048F00004CB032A4FEAEC710AD00DE029E02AE04C
:1049000009F1070121F00702F2E802C1914609E02E
:104910000FFA8CFC4FEAEC71042A03D14FFA8CFC9D
:104920004FEAEC71002907DA0A460021DCF1000C9D
:1049300061EB02012D2202E0220504D52B228DF825
:104940000420012203E0E20701D02022F7E790468D
:1049500059E00A2102E010220DE010214FF0000A78
:1049600000910BE010224FF0000A44F004040827E5
:10497000009203E008224FF0000A0092C4F30252B2
:10498000022A05D059F804CB0021032A08D009E0F7
:1049900009F1070121F00702F2E802C1914605E0A2
:1049A0001FFA8CFC042A01D10CF0FF0C4FF0000818
:1049B000220728D5702806D0009B83F0100353EA05
:1049C0000A0305D00EE040228DF80420012208E001
:1049D0005CEA010206D030228DF804208DF8050033
:1049E00002229046009B83F0080353EA0A030AD18F
:1049F0005CEA010201D1620705D530228DF804205E
:104A00004FF001087F1E582804D034A003900EA850
:104A100002900DE036A0F9E753466046009AFBF796
:104A2000E1FB84460398825C0298401E029002706B
:104A30005CEA0100F0D1029806A9081A00F1200AE8
:104A4000600702D524F4803400E00127574502DDD9
:104A5000A7EB0A0000E0002000EB0A010090059897
:104A60004144401A0590E00306D45B462146179A5C
:104A7000059800F0B3F90544002706E001A85A465E
:104A8000C05D179990476D1C7F1C4745F6DBE0031E
:104A90000CD55B462146179A059800F09FF905440E
:104AA00004E030205A46179990476D1C0099481E23
:104AB00000900029F5DC08E0029802995A46007837
:104AC000491C0291179990476D1CBAF10001AAF197
:104AD000010AF1DC65E100000928010030313233C0
:104AE000343536373839616263646566000000002A
:104AF0003031323334353637383941424344454614
:104B00000000000000F058F90544761C30780028B9
:104B10007FF4ECAD19B02846BDE8F08F620700D4F1
:104B2000062709F1070222F0070CFCE80223E14600
:104B300003F000485FEA080C02D00FF2702C0DE081
:104B40005FEA045C02D50FF2682C07E05FEAC47CE0
:104B500002D00FF2602C01E0AFF2700C4FF0FF3882
:104B600023F00043CDF850C065280CD006DC452862
:104B700009D046281DD047283DD13DE0662818D0F1
:104B800067287ED138E00021112F01DB112000E0E1
:104B9000781CCDE9000106A90EA8FFF7DDFCDDE9D0
:104BA0000F010E9A03910021009207F1010A04916E
:104BB0004DE04FF000400097CDE9011006A90EA886
:104BC000FFF7CAFCDDE90F0203920E9B1199002248
:104BD000DDF80CA00093049211B9791C00EB010AD6
:104BE000B7EB0A0004D4C0F1FF3007F1010A0490CA
:104BF000AAEB0700019044E0012F00DA0127002111
:104C0000112F01DD112000E03846CDE9000106A991
:104C10000EA8FFF7A1FCDDE90F010E9A0391002118
:104C200004910092BA4621070CD40399514500DA49
:104C30008A46BAF1010F05DD009AAAF10101515C23
:104C4000302908D0B84202DA10F1040F06DA012147
:104C5000CDE9011015E0AAF10101E9E7002805DC22
:104C6000049901440491AAEB000102E0411C514562
:104C700000DD8A460499401A401C01904FF0004024
:104C80000290200704D40198504501DBCDF8048040
:104C900000208DF84F0002980DF14F07B0F1004F42
:104CA00025D02B200E9002984FF0020800280CDA35
:104CB000404202902D200E9007E00A210298FBF757
:104CC000DBFA3031029007F8011DB8F10001A8F1BC
:104CD0000108F2DC02980028EFD1791E0E980870C6
:104CE000307800F0200040F0450007F8020D12A8CF
:104CF000C01B00F107081498007800B1012000EBF8
:104D00000A01019801EBE07105984144401A401EE8
:104D10000590E00306D45B462146179A059800F0FB
:104D20005DF805441498007818B15A4617999047D1
:104D30006D1CE00324D55B462146179A059800F0C8
:104D40004DF805441CE00498002807DBDDE9030169
:104D5000884203DD0098405C179901E017993020E4
:104D60005A469047049805F10105401C04900198AB
:104D7000401E019004D12E205A46179990476D1C71
:104D8000BAF10001AAF1010ADDDC05E017F8010B18
:104D90005A46179990476D1CB8F10001A8F1010817
:104DA000F4DC5B462146179A0598ABE62D0000001F
:104DB0002B000000200000002DE9F04104460025F2
:104DC0001E461746880404D405E039462020B04723
:104DD0006D1C641EF9D52846BDE8F0812DE9F0412F
:104DE000044600251E469046C80301D5302700E042
:104DF0002027880404D505E041463846B0476D1C9D
:104E0000641EF9D52846BDE8F0814A68002A06D01C
:104E10000A68531C0B6010704868401E4860704759
:104E20007047000010B500BF084B5B681946084B7F
:104E30001B68084CB3FBF4F303FB00F200BF00BF98
:104E4000024B5B685B1A9342F9DB10BD001000E077
:104E50003000002040420F0000B51048006800F00C
:104E6000807028B90D48006840F080700B490860D8
:104E70000120FFF7D5FF0020094948600846006877
:104E800040F00100086000BF00BF00BF0448406858
:104E900008B9012000BD0020FCE70000FCED00E0A7
:104EA000001000E0044800680449B0FBF1F04FF046
:104EB000FF31B1FBF0F070473000002040420F009E
:104EC000044800680449B0FBF1F004494968B1FBAB
:104ED000F0F070473000002040420F00001000E06A
:104EE000ADF6080DFFF7B8FFFCF760F8FEF7EAFE35
:104EF000FDF7A0FDFDF772FDFDF750FEFDF7F6FD95
:104F0000FDF714FEFDF7E6FE0020CDF804081E4B69
:104F100001220DF604011D48FDF780FC32E04CF241
:104F200050364FF40067002003E0412101AA1154DC
:104F3000401CB0F5006FF8D341F288341AE001222A
:104F4000D1031348FCF719F801AA04212046FDF704
:104F500095FF054600224FF400410D48FCF70DF87F
:104F600025B94CF25030FFF75DFF02E00948FFF72A
:104F700059FF241D42F228308442E0DB0648FBF74B
:104F8000D1FE00BFCBE7000040420F00B803002075
:104F900000000240A0860100002D3101000610161D
:104FA00000061016000000000000000001020304CB
:104FB000060708090000000001020304DC4F000896
:104FC00000000020340000003845000810500008A0
:104FD000340000204C240000484500080000000078
:104FE00000000000000000000000000000000000C1
:104FF00000000000000000000000000000000000B1
:105000000000000010000000010000000024F40077
:04000005080001AD41
:00000001FF
